:020000040800F2
:10000000083F0320290300084B03000819030008D8
:100010004F030008510300085303000800000000CC
:100020000000000000000000000000005503000870
:100030005703000800000000590300080D5F000886
:100040005D0300085D0300085D0300085D03000810
:100050005D0300085D030008594A00081D4B0008B5
:10006000414B0008654B0008894B00085D03000800
:100070005D0300082D4800085D0300085D030008CB
:100080005D0300085D0300085D0300085D030008D0
:100090005D0300085D0300085D030008AD4B000828
:1000A0005D030008856100085D0300085D0300082A
:1000B000D1610008FD6100082D6200085D030008A1
:1000C0005D0300085D0300085D0300085D03000890
:1000D0005D030008BD6A0008C96A0008D56A000807
:1000E0007D4A00085D0300085D0300085D03000809
:1000F000ED6200085D0300085D0300085D03000871
:1001000000000000000000005D6200085D030008C0
:100110005D0300085D0300088D620008BD620008F1
:100120005D0300085D0300085D0300085D0300082F
:100130005D0300085D0300085D0300085D0300081F
:1001400000000000000000000000000000000000AF
:100150005D0300085D0300085D0300085D030008FF
:100160005D0300085D0300085D0300085D030008EF
:100170005D0300085D0300080000000000F002F8C5
:1001800000F0B8F80AA090E8000C82448344AAF179
:100190000107DA4501D100F0ADF8AFF2090EBAE877
:1001A0000F0013F0010F18BFFB1A43F001031847AB
:1001B000F46D0400146E04000A444FF0000C10F8B3
:1001C000013B13F0070408BF10F8014B1D1108BFD5
:1001D00010F8015B641E05D010F8016B641E01F875
:1001E000016BF9D113F0080F1EBF10F8014BAD1CC5
:1001F0000C1B09D16D1E58BF01F801CBFAD505E0E3
:1002000014F8016B01F8016B6D1EF9D59142D6D33C
:10021000704700000023002400250026103A28BF64
:1002200078C1FBD8520728BF30C148BF0B60704768
:100230006E2900F0C587702900F03D8366292FF0F4
:10024000038065292FF0008067292EF0FD87612942
:100250002EF0FC8703681B0A28BF41F08001692942
:1002600000F01882642900F01582752900F01282CE
:100270006F2900F0CA82782900F00983E92901F08A
:100280009383E42901F09083F52901F08D83EF2910
:1002900000F0C782F82900F008830368DB0928BF53
:1002A00041F08001632901F05C83732901F06183CF
:1002B000E32901F06C83F32901F07183002070477A
:1002C0001FB52EF0B4FF9DE8030000F0DFFE00F044
:1002D000B9FE0400002000212BF01AFF401C6060D2
:1002E000002000212BF02AFFE06002F0ADFD00F0BD
:1002F00091FE1FBD02F06EF81146FFF7E1FF2AF0F4
:100300008DFC1DF013FE0000EFF308807047EFF343
:100310000980704768467047704669461AF014F8BD
:100320002BF0BEFEFEE7000041F20000C2F200002A
:1003300085460E48804740F20000C0F60000D0F825
:1003400000D00B4880470B480047FEE7FEE7FEE77A
:10035000FEE7FEE7FEE7FEE7FEE7FEE7FEE700005A
:1003600005480649064A074B7047000031DF01087F
:10037000CD5F00087D010008081D0320083F032011
:10038000081F0320081F03207047000010B500F06D
:1003900059FE001D10BD00BF79BD020070B50646B4
:1003A00000F04CFE056806F10B0020F00704B44293
:1003B0009CBF002070BD2B466A68BAB11068A0428D
:1003C00010D304F1080188423CBF5068586007D33D
:1003D0005168101941601168091B01605860146070
:1003E000101D70BD13465268002AE7D121462846E9
:1003F00000F038FE0028DED170BD70B50446051F40
:1004000000F01CFE0068002C14BF446870BD002C76
:1004100018BFAC423CBF20466468F8D301680A1894
:10042000AA4218BF456003D12A68054611440160FD
:1004300028684119A1421CBF6C6070BD6168696089
:1004400021680844286070BD53EA020C00F06980FE
:100450002DE9F04B4FF00006002B1FBFB3FA83F5D8
:1004600003FA05F424FA05F65E4012BF1643B2FA09
:1004700082F502FA05F4C5F120051EBF22FA05FC3B
:1004800044EA0C04203556EA044C4FEA144418BFE1
:10049000641C4FF000084FF00009904271EB030C10
:1004A00039D3002919BFB1FA81F701FA07F6B0FA7A
:1004B00080F700FA07F6C7F120071EBF20FA07FCF5
:1004C00046EA0C062037B6FBF4FCA7EB0507103F05
:1004D00007F01F0BCBF120060CFA0BFB2CFA06F6EB
:1004E00044BFB3460026202FA4BF5E464FF0000B4A
:1004F0005BEA060C08BF4FF0010B19EB0B09ABFBD5
:10050000027C48EB0608C01B06FB02CC0BFB03CCAD
:1005100071EB0C01C1E70B46024641464846BDE877
:10052000F08B13B54FF000004FF00001AFF30080E7
:10053000BDE81C40704700007CB51D4616460C0007
:10054000009001D02044401E074B7B442A46694658
:100550000190304601F0DBF905461CB100206946E8
:1005600001F0E8F928467CBDF11300000FB41CB57A
:10057000084B06AA7B4469460090059801F0C7F92C
:1005800004460020694601F0D5F920461CBC5DF800
:1005900014FB0000BD1300000FB47CB50C0009AAC9
:1005A000009001D02044401E084B7B4469460190D6
:1005B000089801F0ACF905461CB10020694601F02D
:1005C000B9F928467CBC5DF814FB000091130000CB
:1005D00070B5044685690068C10601D5302600E083
:1005E0002026C00707D070BDD4E9012130469047CE
:1005F000206A401C20626D1EF6D570BD70B50446A1
:1006000085690078C00707D170BDD4E90121202099
:100610009047206A401C20626D1EF6D570BD0968A7
:100620004A0501D540B27047C905FCD500B27047F4
:1006300009684A0501D5C0B27047C905FCD580B22A
:10064000704770B50C460546012A05D0287880060B
:1006500000D5EA69002302E0012305E05B1C934218
:1006600002D2E05C0028F9D1A869E618C01AA86196
:10067000286A184428622846FFF7AAFF04E0D5E953
:10068000012114F8010B9047B442F8D32846FFF734
:10069000B5FF70BD2DE9F0410646002410687529AC
:1006A000314616A510D0FFF7BAFF002802DA404203
:1006B00013A507E031688A0701D512A502E04907B2
:1006C00004D511A5012401E0FFF7B2FF00210A22A1
:1006D00006F1240709E0B0FBF2FCB0FBF2F302FBE9
:1006E0001C00303078541846491C0028F3D12346AA
:1006F0002A463046BDE8F04100F009BD0000000088
:100700002D0000002B000000200000002DE9FF5FFD
:1007100015468A460446DFF8AC80F8440027D8E93D
:1007200000103E46CDE9001010E03AF816106A4677
:1007300002A801F0F3F9411C07D02178890603D5FE
:10074000E269391891420DD80744761C207880065A
:1007500002D5E069B84205DDAE42E6DB3AF81600A4
:100760000028E2D1A069C01BA0612046FFF730FF3E
:10077000D8E90010CDE90010002017E03AF8181071
:100780006A4602A801F0CAF9B0F1FF3F81460BD0DA
:1007900000250DF1080B05E0D4E901211BF8050047
:1007A00090476D1C4D45F7D308F10100B0428046DB
:1007B000E4DB206A384420622046FFF71FFFBDE8D3
:1007C000FF9F00002655040030B4002100F12404EE
:1007D00008E002F00705D208303542EA4372DB0830
:1007E0006554491C52EA0305F3D10468002310A2A2
:1007F000250707D5A40600D421B1C46901230DA2A1
:10080000641EC46130BC00F082BC10B504462146B1
:100810001068FFF70DFF02462046BDE81040002398
:10082000D2E7D21D22F00701D1E90023CCE7000076
:100830000000000030000000F0B40D4601880905FA
:1008400002D5214C7C4402E01F4C7C440E34002134
:1008500000F1240608E002F00F071209E75D42EA02
:1008600003721B097754491C52EA0307F3D102783B
:100870000023120704D5702D06D009B102231134CC
:100880002246F0BC00F043BC01231034F8E770B5F9
:1008900004460D4621461068FFF7CAFE0246294667
:1008A0002046BDE870400023C6E7D21D22F00703B2
:1008B000D3E90023C0E70368126843F02003036014
:1008C0000823C3610023B7E7045404002DE9F05F57
:1008D000894604464FF0000ADFF874B1FB44C0F8C3
:1008E00020A02046E1688847002874D0252806D03B
:1008F000D4E901219047206A401C2062F1E70026DC
:100900005F462046E16888472028054607DB312DF1
:1009100005D2781910F8200C08B10643F1E7B007AA
:1009200001D526F00406C4F81CA00027C4F818A0BE
:100930002A2D09D0284616F020FC38B304EB87088E
:10094000303DC8F8185019E059F8041B204604EB54
:1009500087029161E1688847012F054618D1E06957
:10096000002820DA26F020061DE0D8F8180000EB59
:10097000800005EB40003038C8F818002046E168D8
:100980008847054616F0F9FB0028EED1012F0AD062
:100990002E2D08D12046E16888477F1C0546022F8E
:1009A00046F02006C4DBA069002803DA404246F086
:1009B0000106A061F00701D026F010066C2D0BD0C7
:1009C000682D09D04C2D39D06A2D35D0742D35D0F5
:1009D0007A2D33D016E038E0E1682F46204688476C
:1009E000B842054609D16C2F26D04FF48060E168EB
:1009F000064320468847054604E06C2F1AD04FF482
:100A0000807006430DB3A5F14100192802D82035A6
:100A100046F400664A462946204626604E46FFF7C1
:100A200007FC80B101280BD0F61D26F0070000F16D
:100A3000080956E74020E4E78020D8E70020D6E701
:100A400006F104094DE7284652E7206ABDE8F09F09
:100A5000945304002DE9FF5F1D464FF0FF3B914684
:100A60004FF000085F46D5E90146A96901987F1C4F
:100A70008847296A824688470028F6D1BAF1FF3FA5
:100A80000CD0002E24F4C06419DD600614D5BAF130
:100A90002B0F09D0BAF12D0F0ED103E0584604B048
:100AA000BDE8F09F44F48064A96901987F1C8847E1
:100AB000761E8246002E02DDBAF1300F03D0B9F166
:100AC000000F26D032E0A969761E01987F1C44F4FD
:100AD00000748847002E824605DDBAF1780F06D0F3
:100AE000BAF1580F03D0B9F1000F10D01EE0B9F1E0
:100AF000000F02D0B9F1100F18D1A969761E019824
:100B00007F1C24F4007488478246102002E00820ED
:100B100000E00A20814609E0A96908FB0908761E61
:100B200001987F1C44F4007488478246002E05DD3E
:100B30004946504600F076FF0028EDDAE969019851
:100B40008847A00502D46FF00100A8E7E00725D18F
:100B5000600613D5600502D5C8F1000000E04046EC
:100B600029680A1D2A600968220501D5087015E068
:100B7000220701D5088011E008600FE02868011DF8
:100B800029600068210502D580F8008006E0210771
:100B900002D5A0F8008001E0C0F8008038467EE76A
:100BA00070B5064600F056FA0468054630460A223B
:100BB000002100F07BFF2C6070BD70B5064600F090
:100BC00049FA0468054630460A22002100F06EFF0B
:100BD0002C6070BD2DE9F041074615460E461020E9
:100BE000FFF7DCFB04000AD06760C4E9026500F08F
:100BF0002DFA0168216004600020BDE8F081012029
:100C0000FBE730B505460B462A4613F8014B12F8B0
:100C1000010B08B1A042F8D01CB1002802D06D1C15
:100C2000F1E7284630BD40EA010310B59B070FD11C
:100C3000042A0DD310C808C9121F9C42F8D020BA4C
:100C400019BA884201D9012010BD4FF0FF3010BD04
:100C50001AB1D30703D0521C07E0002010BD10F8D2
:100C6000013B11F8014B1B1B07D110F8013B11F898
:100C7000014B1B1B01D1921EF1D1184610BD40EA59
:100C80000103024630B59B0710D14FF0013400E05C
:100C900008C208C91D1B9D4315EAC41FF8D013F0F4
:100CA000FF0102F8011B0DD01B0AF8E711F8013B08
:100CB000002B02F8013B05D011F8013B002B02F894
:100CC000013BF3D130BD0022CBB210F8011B994299
:100CD00000D1421E0029F8D11046704710B5431CC0
:100CE00002E010F8011B71B18107FAD14FF0013217
:100CF00002C88C1A8C4314EAC211F9D0C01A0A0631
:100D000003D0C01E10BDC01A10BD0A0401D0801E41
:100D100010BD0902FCD0401E10BD421E12F8013F5A
:100D2000002BFBD111F8013B002B02F8013BF9D15C
:100D30007047032A40F2308010F0030C00F0158059
:100D400011F8013BBCF1020F624498BF11F801CBCE
:100D500000F8013B38BF11F8013BA2F1040298BF33
:100D600000F801CB38BF00F8013B11F0030300F09D
:100D70006780083AC0F0088051F8043B083A51F8FF
:100D800004CBA0E80810F5E7121D5CBF51F8043B46
:100D900040F8043BAFF30080D20724BF11F8013BB9
:100DA00011F801CB48BF11F8012B24BF00F8013B1B
:100DB00000F801CB48BF00F8012B7047431A28BF49
:100DC0009A427FF6B6AF032A1044114440F22680BF
:100DD00010F0030F1EBF11F8013D521E00F8013D37
:100DE00010F0030F7FF4F6AF11F0030300F0F1866B
:100DF000083AC0F00B8051F8043D083A51F804CD90
:100E000040F8043D40F804CDFFF7F3BF121D5CBF6E
:100E100051F8043D40F8043DAFF30080D20724BFF1
:100E200011F8013D11F801CD48BF11F8012C24BF84
:100E300000F8013D00F801CD48BF00F8012C7047D3
:100E400010B5203AC0F00B80B1E81850203AA0E865
:100E50001850B1E81850A0E81850BFF4F5AF5FEA99
:100E6000027C24BFB1E81850A0E8185044BF18C94C
:100E700018C0BDE810405FEA827C24BF51F8043BF3
:100E800040F8043B08BF7047D20728BF31F8023B47
:100E900048BF11F8012B28BF20F8023B48BF00F8DB
:100EA000012B70474FF000020429C0F0128010F0AF
:100EB000030C00F01B80CCF1040CBCF1020F18BF36
:100EC00000F8012BA8BF20F8022BA1EB0C0100F0C9
:100ED0000DB85FEAC17C24BF00F8012B00F8012B9C
:100EE00048BF00F8012B70474FF0000200B51346D1
:100EF00094469646203922BFA0E80C50A0E80C503A
:100F0000B1F12001BFF4F7AF090728BFA0E80C50EA
:100F100048BF0CC05DF804EB890028BF40F8042BE3
:100F200008BF704748BF20F8022B11F0804F18BF50
:100F300000F8012B704710B5044610F0030F08BFEE
:100F400011F0030F40F015804FF0013E121FC0F268
:100F50000E8051F8043BA3EB0E0C2CEA030C1CEAA8
:100F6000CE1C08BF40F8043BF0D0A1F1040102F10F
:100F70000402521E08DB11F8013B002B00F8013B74
:100F8000F7D11146FFF78EFF204610BD4FF0013C10
:100F900050F8042B51F8043B9A4221D1A2EB0C03E8
:100FA000934313EACC1317D150F8042B51F8043BA8
:100FB0009A4215D1A2EB0C03934313EACC130BD145
:100FC00050F8042B51F8043B9A4209D1A2EB0C03D0
:100FD000934313EACC13DBD04FF00000704700BFFF
:100FE000D01A01BAB1FA81F101F0180122FA01F028
:100FF000CB40C1F12001DBB2C0B2C01A2CFA01F320
:10100000D11A914311EAC311E6D170477047704776
:101010007047000070B5064C7C44064D7D4403E0EB
:10102000206820448047241DAC42F9D170BD0000E7
:10103000F46004003061040070470000004870470D
:10104000781B032000487047901B0320004870471E
:10105000A81B032000487047701B0320704770478F
:101060007047704738B504460A4600206946AFF31A
:101070000080002808BF38BD02460099204600F0D5
:10108000D7FD012038BD012001F048B9F8B5AFF314
:101090000080054600200C46102000BF0646A81917
:1010A000A0420DD9324669460020AFF30080070008
:1010B00008BF01F033F90098A04218BF0546C419D3
:1010C000FFF7BCFF05600746F01D20F0070046193A
:1010D000284600F00AF8B44208BFF8BDA21B31460A
:1010E0003868BDE8F84000F0A3BD00210160C0E908
:1010F000011070471020704710B5FFF7ABFF006874
:1011000010BD10B50446FFF7A5FF046010BD2DE922
:10111000F0470D4699469246044600F124080168BE
:10112000880604D5E06921F01001216000E001206B
:10113000A84201DD471B00E00027A1697A1902EBF4
:101140000900081AA0612078C00602D42046FFF7E3
:101150003FFA002608E0D4E901211AF8060090477A
:10116000206A401C761C20624E45F4DB2078C006C5
:101170000AD52046FFF72CFA06E0D4E901213020F9
:101180009047206A401C2062381EA7F10107F4DC5A
:1011900007E0D4E9012118F805009047206A401CB7
:1011A0002062281EA5F10105F3DC2046FFF726FA90
:1011B0002078000602D50220BDE8F0870120FBE779
:1011C00011680268006A530501D508700AE0D3056A
:1011D00001D5088006E0130603D5C217C1E9000255
:1011E00000E008600120704770472DE9FF4F0C4672
:1011F0001E464FF0FF378BB0D2E90001DDF860806A
:101200000A908A46C1F30A5505B93D4600210846B1
:101210004FF00000BAF1000F00F4400005DA00EBD7
:1012200080004FF4400101EA50004FEA9059B9F1B3
:10123000010F00DDB9460A9850EA4A000ED044F684
:101240001050A5F2FF3545432F14B8F1000F1ED002
:101250007542291E1EDDC9F100021CE0B8F1010F24
:101260004FF0000001D0302103E0F24305E02154AB
:10127000401CB042FBDB30460022002121540B9978
:10128000C1F80880C1E900200FB0BDE8F08FBD1B98
:101290006D1CDEE74A4600DA694206A800F0BCFF92
:1012A00006AB93E8070003AB83E8070050460A99B2
:1012B00002F03CFD8DE80700A0F500501F380090BB
:1012C0000398002D0ADD42F21F014A46084400231C
:1012D00003A90390684602F0E7FF09E0A0F500507B
:1012E0004A461F38002303A90390684603F006F816
:1012F0008DE807000004000C03D04FF0FF304108D8
:1013000000E01046B8F1000F03D00022009215460D
:101310001EE0751E05D400F0A5FC303262556D1E2E
:10132000F9D5B3460122084302D000227F1C04E015
:101330002078302801D100227F1E002A099784D00E
:101340001DE0112D07DA00F08DFC303262556D1C66
:1013500050EA0102F5D1084302D00098C8B10EE06E
:101360000021681E05E0235C625C63542254401E29
:10137000491C8142F7DBAB46A81B401E09900020A8
:1013800004F80B000B98099AC0F80880C0E9002BFC
:101390007AE711264FF0000857E72DE9F04F88460D
:1013A0000446D21D22F0070191B0D1E90001CDE938
:1013B0000A0113F0C8FD02460B98C00F01D02D2082
:1013C00007E02068810701D52B2002E0202101EAF7
:1013D000C000032A099001D0072A05DB03464146D5
:1013E000204600F0B1FC0BE12078800601D5E069D1
:1013F00000E00620B8F1650F814606D0B8F1660F0F
:1014000018D0B8F1670F70D131E00020B9F1110F99
:10141000009001DB112301E009F101030AAA01A9EF
:101420000CA8FFF7E2FEDDE90C70002609F10105CA
:10143000834647E001204B4600904FF000470AAA40
:1014400001A90CA8FFF7D1FEDDE90DB00C995D46AE
:10145000002610B909F101000D18B9EB050003D4FD
:10146000C0F1FF3609F10105A5EB09002BE0B9F148
:10147000010F01DA4FF001090020B9F1110F0090BE
:10148000484601DD112300E003460AAA01A90CA881
:10149000FFF7ABFEDDE90C704D4600268346207851
:1014A00000070AD4AB4500DA5D4601A8012D04DD32
:1014B000411911F8011C302907D04F4502DA17F104
:1014C000040F04DA012082460FE06D1EEEE7002FC4
:1014D00002DCED1B3E4403E0781CA84200DD7D1CCD
:1014E000B81B00F1010A4FF000472078000703D431
:1014F000AA4501DB4FF0FF3A0021B7F1004F0DF193
:1015000043088DF8431024D002202B23002F01DA4A
:101510007F422D230A21021EA0F1010000DC5FB1F1
:1015200097FBF1FC97FBF1F201FB1C7C17460CF1D9
:10153000300C08F801CDEEE7A8F101000370218816
:10154000090501D5452100E06521A0F1010800F859
:10155000011C09980FA9A1EB0807FF1D00B101208C
:10156000411901EBEA70A1693844081A401EA061D4
:101570002078C00602D42046FFF72AF8099828B13F
:10158000D4E901219047206A401C20622078C006DF
:1015900022D52046FFF71CF81EE0002E04DBB345E1
:1015A00002DD01A8805D00E03020D4E901219047F0
:1015B000206A401C2062761CAAF101005FEA000A42
:1015C0000AD1FFF73FFDC0680168405CD4E9012102
:1015D0009047206A401C2062281EA5F10105DCDC32
:1015E00007E0D4E9012118F8010B9047206A401C5C
:1015F0002062381EA7F10107F3DC2046FEF7FEFF4C
:10160000032011B041E600002DE9F04F04460D46DD
:10161000D21D22F0070089B0D0E90097484639462C
:1016200013F091FC0246F80F01D02D2307E020684B
:10163000810701D52B2302E0202101EAC0038DF8A8
:1016400020300BB1012000E00020032A824601D0A7
:10165000072A04DB2946204600F076FB3FE120788C
:10166000800601D40D2500E0E569C7F30A560D2D6B
:1016700049DA00214FEA175B08464FF00000002FBF
:1016800000F4400007DA00EB80004FF4400100EB6B
:10169000D07001EA60008115012901DD4FF0FF31B2
:1016A00000224FEA850CBCF1180F06D31346ACF1AB
:1016B00018004FF08052C24003E04FF4801323FA29
:1016C0000CF30CF10C0CBCF1200F04D3ACF1200C8A
:1016D00009FA0CF001E007FA0CF000294FF000487D
:1016E00001DD18B90FE00ED140450CD319EB02090A
:1016F0005F4121B9404502D19F4329EA0209BBEB72
:10170000175F00D0761C2088000502D57B487844FE
:1017100002E07A487844193808AA302302F80A30DF
:10172000037C0AF10101002E0AF1020A53546A46B1
:1017300002DC4FF0300101E04FF031014FF00108C1
:101740008DF8001002D0A6F2FF3603E059EA4701F7
:1017500000D06B4E002D02DC2178090704D54FF034
:1017600002082E218DF80110C44600210BE0C7F3BA
:1017700003433F01C35C491C6D1E02F80830052974
:1017800008F1010801DA002DF1DC00210CE000EB8A
:101790001973491C1B786D1E082902F808304FEA9E
:1017A000091908F1010801DA002DF0DC21688B0627
:1017B00002D516E0A8F10108E04505DD02EB0803BB
:1017C00013F8013C302BF5D0B8F1000F09DD02EB26
:1017D000080313F8013C2E2B03D1090701D4A8F10B
:1017E0000108002D05DD3E2102F808106D1E08F1EC
:1017F0000108407C002E02F8080008F1010804DA14
:101800002D20764202F8080002E02B2002F80800A2
:101810000A214FF47A70864208F101080BDB96FB2F
:10182000F0F3303302F8083096FBF0F308F10108CA
:1018300000FB136601E0642E0CDB642096FBF0F3E2
:10184000303302F8083096FBF0F308F1010800FB92
:10185000136601E00A2E06DB96FBF1F0303002F849
:10186000080008F1010896FBF1F001FB1060303030
:1018700002F80800A16908F1010808EB050202EB73
:101880000A00081AA0612078C00602D42046FEF79C
:101890009FFE216A08AE01EB0A00206204E0D4E951
:1018A000012116F8010B9047BAF1010AF7D220780E
:1018B000C00602D52046FEF78BFE6E4609E016F8FC
:1018C000010B3E280FD0D4E901219047206A401C2B
:1018D0002062B8F10108F2D22046FEF78FFE09B06F
:1018E0000320BDE8F08F206A2844206203E0D4E999
:1018F0000121302090476D1EEBD3F8E759460400D4
:1019000002FCFFFF01694A1C02610878704700B5BC
:101910008FB0CDE901310021059105497944CDE928
:10192000031011466846FEF7D1FF0FB000BD00005E
:10193000E5FFFFFF0A6802F8010B0A607047D1E972
:1019400000239A4202D2531C0B601070704710B5EE
:10195000436913B1AFF3008001E0FEF772FE01208E
:1019600010BD127800F124010A7000224A70012291
:10197000EDE711684FF0FF32E9E710B5436913B1A5
:10198000AFF3008001E0FEF7C1FE012010BD128818
:1019900000F1240182840022C2840122EDE7116853
:1019A0004FF0FF32E9E700002DE9F0418046D21DFB
:1019B00022F007020025D2E90002F52915A614D06D
:1019C000011E72F1000106DA0023D0EB030063EB85
:1019D000020211A608E0D8F800108B0701D50FA667
:1019E00002E0490701D50EA601251146002408F1A1
:1019F000240704E000F036F930323A55641C50EA0E
:101A00000102F7D12B46324621464046BDE8F0415F
:101A1000FFF77DBB000000002D0000002B00000040
:101A2000200000003A2800D2303820F02002412A5D
:101A300001D3A2F13700884201D34FF0FF30704745
:101A4000026811441378016018467047D160054957
:101A500079445161044979441162002111611146B0
:101A600000F0D0B9EDFFFFFF95020000426842B1DF
:101A7000016811F8013B23B1521EC0E9001218465B
:101A800070470121C160881E704742685AB1C3681F
:101A9000016843B983688B4205D0491E521CC0E9D6
:101AA0000012002070474FF0FF3070472DE9F047DB
:101AB00091460F4680460446002614F8015B2DB17E
:101AC000FEF764FC0068405DC007F6D12B2D02D004
:101AD0002D2D18D0641E4A463946204600F04CFB96
:101AE00027B13968A14201D1C7F800804FF0020444
:101AF00071050BD54042002803DDFFF7ABFA046007
:101B0000A007BDE8F08746F48066E4E70028F8DA2D
:101B1000FFF7A0FA04606FF00040F2E770B51646D8
:101B20000C460546FEF732FC036893F801010128D4
:101B300006D0FF2C0FD8185D68B101202C7070BD45
:101B4000D3F807013246214603F20713034428461F
:101B5000BDE8704018474FF0FF3070BD2DE9F041EF
:101B60000646FFF773FA8046454613E016B1E06873
:101B7000B0420ED120682860D4E90101D8F8007085
:101B800088472046FEF739FCD8F80000B842EBD170
:101B900000E025462C68002CE8D1BDE8F08110B5A6
:101BA00000F0C4FBBDE8104000F0B3BB431A28BFEF
:101BB0009A427FF645A9104410F0030F11441EBF4E
:101BC00011F8013D521E00F8013D10F0030F7FF4A3
:101BD000F6AF103AC0F00A8010B531E91850103A4B
:101BE00020E91850BFF4F9AFBDE81040530724BFF7
:101BF00031E9081020E9081044BF51F8043D40F8CD
:101C0000043D12F0030F08BF7047D20728BF31F818
:101C1000023D48BF11F8012C28BF20F8023D48BF03
:101C200000F8012C7047000000487047701B03202B
:101C3000034640688C46002818BF88423CBF0346D4
:101C40004068F8D318681844884207D00CF10300A4
:101C500020F00700001D411A521A0146081D0A60B3
:101C6000FEF7CBBB30B5B0F10A024FEA900E71F12E
:101C700000034EEA817EB0EB0E0061EB91014FEA6A
:101C8000101E4EEA017E10EB0E0041EB11114FEADF
:101C9000102E4EEA016E10EB0E0041EB11214FEABF
:101CA000104E4EEA014E10EB0E0041EB1141401870
:101CB00041F100014FEAD00040EA41704FEAD10102
:101CC00010EB80054FEA810444EA907444EB010470
:101CD0006D1944EB0404521BA3414FF0000348BFAD
:101CE0000A3200D530BD401C41F1000130BD10B5B5
:101CF0000446FEF74BFB0068005D00F0010010BDDC
:101D00000FB4014610B504AA039800F08DFB10BC77
:101D10005DF814FB7CB51D4616460C00009001D002
:101D20002044401E074B7B442A46694601903046BA
:101D3000FFF7EDFD05461CB100206946FFF7FAFDEF
:101D400028467CBD15FCFFFF2DE9F0411F460446E7
:101D500003260168072A01F4006004DB08B116A518
:101D600005E016A503E008B115A500E015A521F0D2
:101D700010002060A069C01EA0610FB1401EA061CC
:101D80002046FEF725FC4FB1D4E9012138469047A3
:101D9000206A401C2062C01C206206E0206AFAE72C
:101DA000D4E9012115F8010B9047761EF8D22046A0
:101DB000FEF724FCBDE8F0814E414E006E616E00DE
:101DC000494E4600696E66000FB400B58DB010A98B
:101DD000099000910B904FF0FF300A9000200C907A
:101DE000064878440690064878446A4607900F995A
:101DF00009A8FFF72BFE0DB05DF814FB87FCFFFF71
:101E00009FFCFFFF2DE9F34F4FF0000A0C465646AA
:101E10008DB001200C9001F10C000B9062690B98C1
:101E200001219047051E2DD0252D2CD0216A8847F1
:101E3000C0B162690B9801219047216A8847002848
:101E4000F7D16269411E0B98904700E0761CA169AA
:101E50000D988847216A88470028F7D1E1690D98D5
:101E60008847DBE7A1690D988847A842074601D15A
:101E7000761CD3E7E1690D9888477F1C02D1BAF13F
:101E8000000F6FD06BE162690B9800273D46394621
:101E900090472A2804D162690B98012190470125B7
:101EA000DFF8D08262690B9801219047A0F13001E0
:101EB0000A290AD24745E5DC07EB870100EB410719
:101EC000303FDFD445F01005ECE7E90601D46FF0B0
:101ED00000476C280AD04C2814D0682815D06A28EE
:101EE0000DD074281CD07A281AD01DE062690B9896
:101EF000012190476C2802D045F0040514E045F01C
:101F000002050DE045F020050AE062690B98012109
:101F10009047682802D045F0080505E045F40065C3
:101F200062690B9801219047C4E9015765283DD0AB
:101F300019DC58287AD00CDC452837D004DC252859
:101F400026D041289ED131E046282FD0472899D16C
:101F50002CE05B2877D0612828D063287CD06428C7
:101F600023D15AE0F6E06F2848D008DC66281DD05F
:101F700067281BD0692821D06E2816D127E0702849
:101F800045D0732868D0752847D078280DD14DE00A
:101F9000A1690D988847252805463FF469AFE16996
:101FA0000D9888476D1C3FF46AAFD8E00D99234621
:101FB0006A466FF001002DF0ABF9C5E045F0400036
:101FC00023464FF000026060A80736D43EE0E807E1
:101FD0007FF447AF2068011D21600068290501D505
:101FE00006701BE7290701D5068017E7A90703D567
:101FF000F117C0E9006111E706600FE745F0400006
:1020000023464FF008026060A80716D41EE040F691
:102010000E0125EA0100606016E045F0400023460D
:102020004FF00A026060A80707D40FE045F04000B7
:102030006060A80708D5234610220D996FF00100B3
:1020400000F004FA80E007E0102223460D996FF0BB
:102050000100FEF7FFFC77E04FF0000963284F46D0
:10206000C8464B46CB4602D05B2806D038E0E8068F
:1020700001D40120A060012732E06269D4F80CB0DD
:102080000B98012190475E2807D14FF0010949467E
:102090006269D4F80CB00B989047216939B90021D6
:1020A0000A4603AB43F82120491C0829FADBD8B3C0
:1020B000216949B308F1010862690B980121904731
:1020C0005D28F4D1B9F1000F09D0002003A951F81F
:1020D0002020D24341F82020401C0828F7DB03AB26
:1020E0002069002820794FEA40701ED05B462246C6
:1020F000CDF80080CDE901970D9900286FF001001F
:1021000020DA00F039FE1FE0C11703AA00EBD1610D
:102110004B1121F01F0102EB8302411A13680120C9
:10212000884003431360C7E719E00D992246002851
:102130006FF00100009702DA00F020FD04E000F0EB
:1021400030FA01E000F0A4FD00280ADA401C06D1B4
:102150000C9820B14FF0FF300FB0BDE8F08F504623
:10216000FAE7E90701D10AF1010A064400200C90C0
:1021700054E60000CCCCCC0C2DE9F05F824615462D
:102180008B4600270AF10104B9460078302801D0B7
:102190009DB113E014F8010B0127782803D05828CB
:1021A00001D045B10AE00DB1102D07D1002714F878
:1021B000010B102502E0082500E00A250026B046A4
:1021C0000EE005FB080005FB06F101271FFA80F869
:1021D00001EB1046B6F5803F00D3B94614F8010B69
:1021E0002946FFF71FFC0028EBDABBF1000F05D0F2
:1021F0000FB1641E00E05446CBF80040B9F1000F67
:1022000006D0FEF727FF02210160C81EBDE8F09F3F
:1022100048EA0640FAE700002DE9F04781461646F5
:102220008AB0354878440DC88DE80D0032487844AE
:10223000801C03AC0DC884E80D0041F69B300844B7
:10224000372190FBF1F290FBF1F5A5F1800501FB40
:1022500012041B3C02D56442012000E00020DFF89C
:1022600098A080460027FA44AAF1BE0A0EE0E007D3
:102270000AD03246684607EB470101230AEB810189
:1022800002F03CF88DE8070064107F1C002CEED1B2
:10229000194F7F44AE3F19E0E80715D007EB041053
:1022A0000DF1180A90E80E008AE80E00C068F042AE
:1022B00001D1981908903246012306A903A802F01B
:1022C0001DF803AB83E807006D10641C002DE3D1FB
:1022D0004FF0010332466946B8F1000F03A802D05F
:1022E00001F0E2FF01E002F009F8C9E90001C9F8D4
:1022F00008200AB0BDE8F0877C3D040010B500203E
:1023000000F05FFEAFF30080BDE81040012016F042
:102310001BBD002801D016F017BD704710B500F0A6
:1023200057FEBDE81040FFF7F4BF000010B50021D4
:1023300002A000F02DFE012010BD000053494750BF
:1023400056464E3A205075726520766972747561F2
:102350006C20666E2063616C6C65640010B512F0D1
:102360002DFEBDE8104012F076BD10B500F00DF85E
:10237000016919B100220261884701E08068804745
:10238000FFF7BCFF10B5FFF7B9FF70B500F048F8D4
:1023900004680546A4B92020FEF700F8040011D017
:1023A000094900202C60C4E900010849A16020739C
:1023B000206160610649A06109B100F035FEE0616D
:1023C000204670BDFFF79AFF00000000852300083B
:1023D000000000007546FFF727FCAE460500694681
:1023E000534620F00700854618B020B5FDF7B8FF2A
:1023F000BDE820404FF000064FF000074FF0000806
:102400004FF0000B21F00701AC46ACE8C009ACE886
:10241000C009ACE8C009ACE8C0098D4670470000AF
:1024200000487047AC1B0320074B70B50D467B443A
:10243000FFF76DFA0446284600F023FE10B14FF076
:10244000FF3070BD204670BD65CC01002DE9FF4F07
:102450001C4691464FF0FF3581B000218A468846E0
:10246000D4E90167A16902986D1C8847216A8346F7
:1024700088470028F6D1BBF1FF3F0CD0002F26F48F
:10248000C0661ADD700615D5BBF12B0F0AD0BBF163
:102490002D0F0FD104E04FF0FF3005B0BDE8F08FF5
:1024A00046F48066A16902986D1C88477F1E8346AA
:1024B000002F02DDBBF1300F03D0B9F1000F2AD09D
:1024C00025E0A1696D1C02987F1E46F400768847BE
:1024D000002F834605DDBBF1780F06D0BBF1580F06
:1024E00003D0B9F1000F10D011E0B9F1000F02D004
:1024F000B9F1100F0BD1A1696D1C02987F1E26F453
:10250000007688478346102000E0082081464FEA85
:10251000E970009017E00A20F8E74346AAFB092873
:10252000DDF800C07F1E03FB098046F4007605F14C
:1025300001050AFB0C0112EB0B0A029841EBEB7848
:10254000A16988478346002F06DD49465846FFF7B4
:1025500069FA5FEA000BE0D5E16902988847B005A7
:1025600002D46FF0010098E7F00718D1700610D57B
:102570005146700505D50023D1EB030163EB08023A
:1025800000E042462068031D23600068C0E9001295
:1025900005E02068011D21600068C0E900A8284608
:1025A0007BE72DE9FF5F4FF0000899461446464649
:1025B0009169D2E901A7DDF838B00198884705464E
:1025C00059EA0B0005D009E0A1690198761C8847FB
:1025D0000546216A284688470028F5D1681C03D0A3
:1025E0005FEACA7005D015E04FF0FF3004B0BDE8D7
:1025F000F09F2068011D2160D0F800800AE05FEAAA
:10260000CA7001D108F8015BA169761C01987F1E90
:1026100088470546002F1ADD681C18D0B9F1000F55
:102620000DD0E81705EBD060421120F01F0059F8DB
:1026300022102A1A012090400142E0D107E0BBF1AC
:10264000000FDCD12846216A88470028D7D0E169ED
:1026500001988847BBF1000F07D1002E05DD5FEA26
:10266000CA7002D1002188F80010A068B84203DDCA
:10267000BBF1000F03D017B16FF00100B6E7304691
:10268000B4E700002DE9FF4F06468BB00878FF281D
:1026900006D0491C2D2805D000244FF0000908E081
:1026A00000200CE00124F8E709EB8903491C00EB4A
:1026B00043090878FF28F7D114B1C9F10000814619
:1026C000107800252C46AA4629462D2801D02B2813
:1026D00004D1521C2D2813D0002082468B4610783E
:1026E000FF280FD04FF0000C0A21521CA5FB0178E7
:1026F00004FB018105FB0C11C5194BEB0104EEE74E
:102700000120EAE7002108464FF00000BAF1000F6F
:1027100002D000EB80004008C0F38157012F01DD9B
:102720004FF0FF370E9955EA040009EB01080BD072
:102730004FF0020918F5FA7F16DA4FEACA70002F37
:10274000706008DD012007E04FEACA70C6E900B0FA
:102750000FB0BDE8F08F00203060FEF77BFCC0F8C2
:1027600000901821084616E0B8F5FA7F18DD002F12
:1027700002DAF748784401E0F6487844D0E90010DE
:10278000C6E9001040EACA707060FEF763FCC0F84A
:102790000090142108460FB0BDE8F04F2CF051BD59
:1027A000002108464FF00000B8F10001099002DA5C
:1027B000C7F1000200E03A4601DAC8F1000106A8BC
:1027C000FFF72AFD06AB93E8070003AB83E8070099
:1027D00044F23E005BEA04010090584604D144F202
:1027E0001E012C465D460091210C0904014306D1CF
:1027F0000099240444EA15442D041039009104F092
:102800007F41014306D10099240244EA15642D0258
:102810000839009104F07041014306D10099240168
:1028200044EA15742D01091F009104F04041014351
:1028300006D10099A40044EA9574AD00891E009168
:1028400004F00041084304D100986D196441401E12
:1028500000904FF001033A466846B8F1000FCDE909
:10286000014503A902DD01F05EFD01E001F031FD4B
:10287000BAF1000F04460D4601D084F00044002157
:1028800008464FF00000099940F2FF77484010F0E9
:102890000C0F07D124F00040284303D0C4F30A50A2
:1028A000B84212D1FEF7D6FBC0F80090C4F30A502C
:1028B000B8420AD1A8487844D0E90010C6E900100F
:1028C00004F000410843706042E7C6E900543FE766
:1028D0002DE9FF4F1F464FF0000A4FF0FF384546E5
:1028E00091B0D7E90146CDF83CA0FEF7ABFBC0683C
:1028F0000168405C1090B96912986D1C8847396A6C
:10290000814688470028F6D1B9F1FF3F0AD0002E52
:1029100024F4D06411DDB9F12B0F08D0B9F12D0FDB
:102920000BD102E0404615B013E744F48064B96966
:1029300012986D1C8847761E8146600504A901D552
:102940002D2000E02B20002E01F1010B0DF13008AD
:102950008DF810003FDDB9F1690F08D0B9F1490FCA
:1029600005D0B9F16E0F02D0B9F14E0F1CD13B4624
:1029700001A8009580E85002DDE912126FF0020014
:102980002CF0CAFCC11CCED10EE0B96912986D1CA6
:10299000884781461398761E44F4007405600F98AA
:1029A000401C002E0F9016DDB9F1300FEDD0B9F1BB
:1029B000780F02D0B9F1580F0DD10F9801280AD124
:1029C0003B46CDE90054DDE91212001F02962CF0BF
:1029D000A1FCC11CA7D1109989453ED144F08004C7
:1029E00006E01399681CAAF1010A44F40074086017
:1029F000B9696D1C1298761E884730288146F0D040
:102A00002BE01099894505D1200603D4761E44F0A9
:102A1000800418E0484614F0B0FB08B3761E0DF1B0
:102A200023018B4544F4007408D2A9F130000BF85F
:102A3000010B200607D5AAF1010003E0200602D40D
:102A40000AF101008246A00502D51399681C0860AE
:102A5000B96912986D1C88478146002ED1DC53E07D
:102A6000002E51DDB9F1650F02D0B9F1450F4BD100
:102A7000A00549D5B9696D1C1298761E24F44074DE
:102A80008847002E81460CDD2B2804D0B9F12D0F8C
:102A900007D144F48074B96912986D1C8847761E7A
:102AA0008146E00501D52D2100E02B2108F8011B0E
:102AB000CDF8008021E0761E0DF13901884544F4FF
:102AC00000740CD2A9F1300010F0FF0088F800006B
:102AD00002D10099884509D908F1010806E0E0050E
:102AE00001D51E4801E042F20F708246B969129882
:102AF0006D1C8847814613980560002E04DD48460A
:102B000014F03BFB0028D6D1F96912988847FF20C2
:102B100053468BF8000088F8000000200A900B90C4
:102B200004AA0CA90AA8FFF7ADFDA00502D46FF016
:102B30000100F8E614F0240F12D0E0071CD1386829
:102B4000DDE90A12031D3B600068C0E9001213E0D2
:102B500054480400464804000A470400F1D8FFFF27
:102B60000AA9684613F0B4FDE00705D13868009A59
:102B7000011D3960006802602846D4E62DE9FF4F48
:102B80004FF000089A461446C146464683B0D2E943
:102B900001B7CDF80080CDF804809169049888478A
:102BA000109905465AEA010005D009E0A169049888
:102BB000761C88470546216A284688470028F5D1B3
:102BC000681C03D05FEACB7005D02AE04FF0FF30DD
:102BD00007B0BDE8F08F2068011D2160D0F80080AB
:102BE0001FE002A86A46E9B200F0EAFB411C07D0E8
:102BF000801C09D04FF000095FEACB7007D00AE0D3
:102C0000E169049888473EE04FF0010904E0BDF80F
:102C1000081028F8021B7F1EA1690498761C8847BB
:102C20000546002F1ADD681C18D0BAF1000F0DD030
:102C3000E81705EBD060421120F01F005AF822106F
:102C40002A1A012090400142CBD107E010980028B9
:102C5000C7D12846216A88470028C2D0E169049874
:102C60008847B9F1000F0ED1109830B9002E04DD5D
:102C70005FEACB7001D1A8F80000A068B84202DD7D
:102C8000109818B117B16FF00100A1E730469FE727
:102C90002DE9FF4F4FF000089B461446454683B090
:102CA000D2E90196CDF80080CDF804809169DDF875
:102CB00048A00498884707465BEA0A0005D009E067
:102CC000A16904986D1C88470746216A38468847E1
:102CD0000028F5D1781C03D05FEAC97005D01BE04D
:102CE0004FF0FF3007B0BDE8F08F2068011D216074
:102CF000D0F8008010E05FEAC97007D16A4640460C
:102D0000B9B2FEF70BFF411C31D08044A1696D1CA4
:102D10000498761E88470746002E14DD781C12D0D2
:102D2000BBF1000007D03B46DDE9101200F09AF934
:102D30000028E0D107E0BAF1000FDCD13846216A63
:102D400088470028D7D0E16904988847BAF1000F76
:102D500006D1002D04DD5FEAC97001D188F80000BA
:102D6000A068B04203DDBAF1000F03D016B16FF0D6
:102D70000100B7E72846B5E72DE9FF5F9B461446FB
:102D800000273D469169D2E90196DDF840A00198FF
:102D9000884780465BEA0A0005D009E0A1690198EE
:102DA0006D1C88478046216A404688470028F5D137
:102DB000B8F1FF3F03D05FEAC97005D014E04FF0CF
:102DC000FF3004B0BDE8F09F2068011D2160076856
:102DD0000AE05FEAC97001D127F8028BA1696D1C76
:102DE0000198761E88478046002E15DDB8F1FF3F1A
:102DF00012D0BBF1000007D04346DDE90E1200F00F
:102E000031F90028E5D107E0BAF1000FE1D14046E1
:102E1000216A88470028DCD0E16901988847BAF127
:102E2000000F05D1002D03DD5FEAC97000D13880A5
:102E3000A068B04203DDBAF1000F03D016B16FF005
:102E40000100BEE72846BCE710B542485421FEF712
:102E50004BF841485421FEF747F840485421FEF70B
:102E600043F83F493B483C4A3F4B08603D490A60B4
:102E70003A491960531C0365481C10650120086518
:102E80003B48344A39A1784400F022F920B9384847
:102E900078440A3800F0CAFA37482F4A35A17844F6
:102EA00000F016F920B9344878440A3800F0BEFA28
:102EB00032482A4A2FA1784400F00AF920B92F4855
:102EC00078440A3800F0B2FA40232248DC0000219E
:102ED000224600F0DAF820B125487844543800F052
:102EE000A5FA1D4822464023002100F0CEF820B16B
:102EF00021487844543800F099FA184822461023A3
:102F0000002100F0C2F8002806D01C487844BDE833
:102F10001040563800F08ABA10BD104870B5006DE8
:102F200020F001040B4800F049F90B4800F046F985
:102F30000A4800F043F909E0206D20F00105204621
:102F400000F03CF92046FDF758FA2C46002CF3D14E
:102F500070BD0000D01B0320241C0320781C03201C
:102F6000E8020020EC020020F002002072000000C5
:102F700062C403007700000052C4030043C403008E
:102F80000A460146014800F08CB90000CC1C032021
:102F900070B505460C460A2000E06D1C15F04EFF8A
:102FA00035B128780028F8D102E0641C15F046FFFE
:102FB00014B120780028F8D1BDE870400A2015F03F
:102FC0003DBF10B500F01AFABDE81040FFF7A1B9F7
:102FD00010B5012805D0002103A0FFF7D9FF01207B
:102FE00010BD09A1F8E7000053494752544D454D23
:102FF0003A204F7574206F662068656170206D659A
:103000006D6F7279000000003A2048656170206D94
:10301000656D6F727920636F72727570746564008C
:1030200001B5FDF786FE01BD10B58820FDF7B6F9A4
:10303000002801D00021017010BD802902D808B1FC
:10304000017809B100207047012100F8081B704782
:1030500018B100F10802914201D000207047002110
:103060000170704710B508E030F8024B9C4204D163
:103070000AB1002010BD012010BD491EF4D2104637
:1030800010BD007B00F08000704770B5C468A507D4
:1030900013D0650211D4B2F5807F09D0B2F5007F5C
:1030A00006D0B2F5806F08D1012300F1240106E0BB
:1030B0005D1E6FF07F46B54201D3012070BD0161F6
:1030C000C361416024F470611143C160002070BD90
:1030D0002DE9F0410C4607461646104600F06EF802
:1030E0002078611C61280AD0722802D077283CD150
:1030F00002E00125002405E00225042402E0082462
:1031000048F2020511F8010B2B2806D0622809D0DD
:1031100011F8010C74280AD00BE045F0030544F0C7
:103120000204EFE745F0040544F00104EAE744F047
:1031300010043846214615F011FE411C15D000211F
:10314000316171604FF40071F560F16170612007C9
:1031500004D530460222002100F098FC306D40F08A
:10316000010030653046BDE8F0810020FBE72DE925
:10317000F0410D460646104C206DC10704D04108B1
:1031800004D020F00104F7E722460EE05420FDF7BA
:1031900005F907000ED0206D47F0010108435421C6
:1031A00020653846FDF7A0FE3A4629463046BDE880
:1031B000F0418DE70020D6E7D01B03202DE9F04732
:1031C00004464FF000094FF0FF37C568D4E9048684
:1031D000A80707D0204600F009FD304615F0A3FDF2
:1031E000002802DA3846BDE8F087280502D54046B7
:1031F000FDF703F94C212046FDF776FE206D20F007
:10320000010020654846EEE770B50646484231EABF
:1032100000000FD02A20741C00253070FDF712FF2B
:103220000346002253F82500010F000109292BD97C
:1032300057312AE0042913D004DC012908D00229DF
:1032400004D109E008290FD0102911D0002070BD49
:10325000FDF7F8FE00680EE0FDF7F4FE40680AE0B6
:10326000FDF7F0FE806806E0FDF7ECFEC06802E0C6
:10327000FDF7E8FE006928B120F0030050F8041CB7
:10328000084470BD4CA070BD3031521C082A04F8AF
:10329000011BC9D36D1C052DC3DB002020703046F7
:1032A00070BD09B14B0901D00020704722B11378DD
:1032B0002A2B02D000F034B8A6E7AFF300802DE946
:1032C000F0410F468046541C00250026314614F874
:1032D000010BA0F13002092A03D9A0F16103052BEB
:1032E00016D8392801D8104600E05738491C08295B
:1032F00040EA0616EBD30120A840384203D0FDF780
:10330000A1FE40F825606D1C052DDEDB207810B194
:103310000020BDE8F08139464046BDE8F04173E742
:103320002DE9F0410C460646154688070AD5114698
:103330002248784428F0ECFE071EEAD0FDF782FE12
:103340007F1C4760E0070AD029461C4878441A3899
:10335000AFF30080071EDCD0FDF774FE0760600746
:103360000AD52946154878443438AFF30080071E43
:10337000CFD0FDF767FE876020070AD529460F48A2
:1033800078444E3828F0DAFE071EC2D0FDF75AFE08
:10339000C760E0060AD52946084878446838AFF384
:1033A0000080051EB5D0FDF74DFE05612146304673
:1033B000BDE8F04128E7ACE743000000D63D04003B
:1033C00070B516460C460546FCF7E0FF036893F817
:1033D0000101012804D0185D68B101202C8070BD66
:1033E000D3F803013246214603F20313034428466F
:1033F000BDE8704018474FF0FF3070BD10B5002198
:1034000002A0FFF7C5FD012010BD00005349474150
:103410004252543A2041626E6F726D616C20746545
:10342000726D696E6174696F6E00000010B500F016
:1034300021FCBDE81040FEF76CBF00DE2DE9F04135
:1034400017460E46054633B107FB0354E41B2046DE
:10345000B047A542FAD1A5F10800BDE8F08100000F
:103460002DE9FF4F1F464FF03C0987B04FF0004257
:10347000DDE9141001F10108DDF858A002EA40501E
:103480000390002005908346054604460490B969E0
:10349000461E08988847AAF1010A0290BAF1000F67
:1034A0003BDD02982E2815D01021FEF7BBFA00282C
:1034B0002EDB4FF0010B0599014317D0B9F1000F36
:1034C0000BDB4A46C11700F0EFFB05430C43A9F1A3
:1034D000040905E0012004900BE008B145F0010566
:1034E00001200590049820B9361D02E0049800B12F
:1034F000361FB969089808F101088847BBF1000F29
:10350000AAF1010A0290C9D00999C1F80080C5E763
:103510000298702808D0502806D0F9690898884782
:10352000BBF1000F14D04FE0002002900120BBF14E
:10353000000F049009D0B969089808F1010888477C
:10354000AAF10109B9F1000F07DCF9690898884769
:103550006FF001000BB0BDE8F08F2B2804D02D28B0
:103560000CD14FF0FF300490B969089808F10108B8
:103570008847A9F10109B9F1000FE6DD411CE4D04B
:103580000A21FEF74FFA0028DFDB029908F1010853
:1035900001EB810100EB41000290B969089888476E
:1035A0000A21FEF73FFA099AA9F10109B9F1000FC2
:1035B000C2F8008001DD0028E7DAF9690898884739
:1035C0000499029800FB016655EA040004D004F057
:1035D0004041090002D006E0039898E0A40044EAC4
:1035E0009574AD00B61E04F00041080002D16D19BB
:1035F0006441761E159810F0240F03D04FF00B098C
:103600005C4803E04FF028096FF07D008246564584
:1036100007DAAAEB06018944B9F1410F01DD4FF049
:10362000410901200021A9F1010200F03DFB024601
:1036300028400B462140084301D0012100E0002131
:10364000501E029143F1FF3128402140084301D030
:10365000012000E000200299834651EA0B014FD07F
:10366000002108464FF00000039900F4400039B1F2
:1036700000EB80004FF4400100EBD07001EA6000E5
:103680008015012802DD4FF0FF3000E013D0401C10
:1036900036D0029860B3BBF1000F0CD14A4601202E
:1036A000002100F001FB28402140084301D0012007
:1036B00000E00020E0B101204A46002100F0F4FAC9
:1036C000034640190A4661412D1A8C4111D3B9F1C4
:1036D000400F09DD159810F0240F02D0AAF134062E
:1036E00003E0AAF1170600E0761C00254FF0004425
:1036F00006E05B1E42F1FF3220EA030521EA0204E4
:10370000CAF10100B04206DA1B4903980843019050
:10371000002000900EE0039AC4F3D321E80A0A4384
:10372000164940EA44500A433146CDE90002684652
:1037300013F08AF9159810F0240F0BD01598C007D4
:1037400015D13868DDE90012031D3B600068C0E94F
:1037500000120CE002A8694612F0BAFF1598C007E3
:1037600005D13868029A011D396000680260404640
:10377000F0E6000002FCFFFF0000F07F0000F03FD9
:103780002DE9FF4F92461D4685B04FF00041DDE91F
:10379000124BDDE914727F1E01EA4B50414940F0A3
:1037A000FF4940EA0108002122F020004928049145
:1037B00002D04E2828D04CE03BA0012607C88DE857
:1037C0000700A9690698641C88477F1E014606D435
:1037D0001DF8060018B121F0200181420BD0E969E3
:1037E00006988847032E34D0082E32D06FF001009F
:1037F00009B0BDE8F08F761C032E01D0082EE0D171
:10380000601CCAF80000DCE7A9690698641C8847B8
:103810007F1E2AD420F02000412826D1A9690698CD
:10382000641C88477F1E20D420F020004E281CD125
:10383000A9690698641C88477F1E48F4002849F44B
:103840008009CAF8004001D4282806D0E969069802
:1038500088475FEACB7012D022E0A9690698641C01
:1038600088477F1E01D4002803DAE9690698884753
:10387000BCE72928F1D1641CCAF80040E9E71BF035
:10388000240F07D028680499031D2B600068C0E945
:10389000001805E02868021D2A600068C0F8009042
:1038A0002046A5E70000F07F494E46494E4954594D
:1038B000000000002DE9F04705460C46C86820F4DA
:1038C000201040F48000C860800602D5084600F051
:1038D000B0F9E06841F282014FF0FF39014002295E
:1038E00003D0204600F04EF9B5E000F42041B1F5D8
:1038F000004F0FD1C00306D56168E06A884200D846
:103900000846606006E02069E0626060606915F06A
:103910001CFAA061A0680022EEB200280DDAE1686E
:103920008B050AD4C043A06041F490302260E0606F
:103930006068411C61600670A5E0E0689046226006
:1039400040F40050E060206968BB606915F0FFF941
:10395000012704F12405A0B1A08910F4407F08D00C
:10396000E069FCF71BFD206118B1E06840F40060DD
:1039700016E0E7612561E06820F4407040F4806063
:103980000EE0E069FCF70AFD00282061F1D0E06854
:1039900040F4006010F4407FE06002D140F4807099
:1039A000E06020696060E06825696FF0010AC10588
:1039B0001FD56168E06A884200D80846411B04D0E0
:1039C0002246284600F0E8F8F0BBE068010203D583
:1039D000E562C4E9015854E0691CE1626160E16993
:1039E00040F48030491EC4E9021030462E70BDE814
:1039F000F087010202D500F480320AE06068411CC1
:103A000061600670E0680A2E40F48030E06006D005
:103A10000022E16A6068814203D90B4602E001227C
:103A2000F7E70346A7895B1B7F0503D4E7699F423D
:103A300000DDE2B1814200D80146E5620F1AC4E917
:103A40000158002B09DD00E005E022461946284612
:103A500000F0A2F808B14846C9E747B1A069E5629D
:103A60006560C01BA061E06840F01000E060E068A5
:103A7000000208D56168A069E562491B08446560D9
:103A8000A0615046B3E73046B1E700002DE9F041B0
:103A9000044616460D464769007B80072ED03846FF
:103AA00015F055F950BB3EB3012E02D0022E25D1A0
:103AB00004E0204600F00BF905441DE0384615F0FF
:103AC00044F9E168002841F01001E16005DA204680
:103AD00000F058F80120BDE8F081C9030BD56268F9
:103AE000E16A914200D81146A26911442269891AFB
:103AF000814200DD08460544002D01DA0220EAE794
:103B0000E16A6068E268814206D29103E06203D50F
:103B100022F4003141F01002A6690027AE4213DC06
:103B2000E16A814201D90B4600E0034603EB060C33
:103B30002369ACEB030CAC4506DD814201D98C4610
:103B400000E084469C4505D1A760276042F0200034
:103B5000A5620DE0AD1BE669AE1B8142A66000D9EF
:103B60000846C01A281A20605819606022F0200008
:103B700003490840E060002084F84870ABE700008B
:103B8000BFCFD7FFC16821F4001141F08001C160AF
:103B900000218160016070472DE9F047814614469D
:103BA0000E464FF0FF383248D5685769054209D0B4
:103BB0003846A16915F01EF9002811DB2C48C043D6
:103BC0000540E5602B4632464946384615F01CF95B
:103BD000A16920F00042B21A11440028A16103D06B
:103BE0002046FFF7CFFF4046BDE8F08770B504469A
:103BF0000569C06A6168884200D80846E16821F416
:103C00002011E160C90312D5A84208D02246411B09
:103C10002846FFF7C1FF10B14FF0FF3070BD002004
:103C2000E562C4E90150E06820F48030E0600020E3
:103C300070BD10B50446C06820F02000E060A16AA5
:103C4000A06988420DD02046FFF7D0FFE06820F43D
:103C5000405040F01000E060A06AA0612069E0627E
:103C6000606044F24001E0688843E06010BD0000FD
:103C70001000020010B5014602A0FFF789F90120EB
:103C800010BD000053494752545245443A205265F2
:103C90006469726563743A2063616E2774206F7083
:103CA000656E3A2000000000B2F120030AD5C2F18F
:103CB000200301FA02F120FA03F300FA02F041EACC
:103CC0000301704700FA03F14FF00000704710B590
:103CD0000146C268900703D0900607D5886A0AE0BB
:103CE000FDF7B8F901210160881E10BD8B69486895
:103CF00018440B69C01A91F848301BB191F849106B
:103D0000401A10BD1103FCD50028FADD401E10BD7D
:103D10002DE9F04116461F460C46851B02E0284659
:103D2000B847AD1B641EFAD2BDE8F0815FEA400CD3
:103D300008BF91F0000F4FEA8C234FEAC12243EAFB
:103D400051514FEA1C5018BF00F5F0404FEA3000C7
:103D500018BF41F000415FEA6C5C00F02980BCF1C3
:103D6000FF3F08BF40F080407047130C06BF1204AD
:103D70004FF0100C4FF0000C130E04BF12020CF1A8
:103D8000080C130F04BF12010CF1040C930F04BFB5
:103D900092000CF1020CD30F04BF52000CF1010C85
:103DA00011464FF00002A0F11F00A0EB0C0070477D
:103DB00011F0004F08BF704731F000413FF4D5AF1C
:103DC0000B0C06BF09044FF0100C4FF0000C0B0E4B
:103DD00004BF09020CF1080C0B0F04BF09010CF120
:103DE000040C8B0F04BF89000CF1020CCB0F04BF35
:103DF00049000CF1010CCCF12003A0EB0C0022FADD
:103E000003F302FA0CF241EA030100F101007047EA
:103E100020F07F4C80EA030023F07F47ACEB0703E0
:103E200003F57C5300F0004003F1FF032DE98049C6
:103E30004FEA154B09B44FEA144325EA0B4E24EA26
:103E400003480FF2042606EB132749083E785FEA81
:103E5000320203FB0667C7F5000707FB06F64FEAC9
:103E600054374FEAD64606F1020607FB066CCCF142
:103E7000005C4FEA1C472CEA074C07FB06F40CFBDE
:103E800006F504EB15464FEA961634BF00204FF0B6
:103E900000404FEAD13706FB07FC4FEA1C4C0CFBF5
:103EA0000BF7D21B03FB0CF761EB07010CFB0EF7C2
:103EB000B0EB074072EB17420CFB08F734BFA2EBE4
:103EC0000742B2EB074261EB17414FEA0C444FEA5D
:103ED000910706FB07FC4FEA1C4C0CFB0BF7B0EB01
:103EE000C74072EB573203FB0CF734BFA2EBC7425B
:103EF000B2EBC74261EB57310CFB0EF7B0EBC700DA
:103F000072EB57720CFB08F734BFA2EBC702B2EB9F
:103F1000C70261EB5771039F4FEA816141EA921139
:103F200004EBCC044FEAD1374FEA826206FB07FC70
:103F300042EA90124FEA80604FEA1C4C0CFB0BF7F0
:103F4000D21B03FB0CF761EB07010CFB0EF7B0EB88
:103F5000074072EB17420CFB08F734BFA2EB074295
:103F6000B2EB074261EB17414FEA8C554FEA9107DC
:103F700004EB9C2406FB07FC4FEA1C4C0CFB0BF7E4
:103F8000B0EBC74072EB573203FB0CF734BFA2EB28
:103F9000C742B2EBC74261EB57310CFB0EF7B0EBF7
:103FA000C70072EB57720CFB08F734BFA2EBC702D5
:103FB000B2EBC70261EB577115EB4C254FEA8161FB
:103FC00041EA92114FEA82624FEAD13742EA9012F7
:103FD00006FB07FC44F100044FEA80604FEA1C4CEA
:103FE0000CFB0BF7D21B03FB0CF761EB07010CFB7F
:103FF0000EF7B0EB074072EB17420CFB08F734BF2B
:10400000A2EB0742B2EB074261EB174115EB1C151F
:104010004FEA813141EA92414FEA823242EA9042CC
:104020004FEA80304FEA0C7644F1000448EA03433B
:104030004EEA0B484FF0000EB2EB080C71EB030791
:1040400024BF624639464EEB0E0E4FF0000B0018AF
:10405000524149414BEB0B0BB2EB080C71EB0307E0
:104060007BF1000B24BF624639464EEB0E0E4FF03B
:10407000000B0018524149414BEB0B0BB2EB080C03
:1040800071EB03077BF1000B24BF624639464EEB10
:104090000E0E51EA020718BF46F0010616EB0E7627
:1040A00055F1000254F1000103D5BDE88901BDE8D6
:1040B0000088BDE88901BDE80048B619524141EBCE
:1040C0000101A3F10103704780807F7E7D7C7B7AB4
:1040D0007978777676757473727171706F6E6E6DB4
:1040E0006C6C6B6A6A69686867666665646463635A
:1040F00062616160605F5F5E5E5D5D5C5C5B5B5AE0
:104100005A5959585857575656555555545453534C
:1041100052525251515050504F4F4F4E4E4D4D4DA7
:104120004C4C4C4B4B4B4A4A4A49494948484847F2
:104130004747474646464545454444444443434330
:10414000434242424241414146EA0646A3F570538A
:104150004FEA164646EA42564FEAD22242EA415216
:1041600010B54FEAD121A3F1010300F02FF820F0A0
:10417000004000F1020C00F0004701EB0050114636
:10418000BCF5006F40EA070000D210BDBAF1000F85
:104190000AD01CB503B44FF004004FF004014FF0F7
:1041A00000000FBCBDE810404FF00001BBF1010F53
:1041B000B9BF04484FF0FF310348002140EA07002F
:1041C00010BD00BFFFFFEF7F0000F07F002B9C467B
:1041D00030D477002BD01CB54FEA370703B44FF02B
:1041E00010004FF01001BAF1000F06D0BCF1000F23
:1041F000DCBF40F0080040F008014FF000000FBCA9
:10420000BDE810400BF1010BBBF1010F08BF5FEAE5
:10421000170722BF12F1010211F101014FF0004115
:1042200043F1000300F0004043EA00007047F9D377
:104230005708D0E746EA064613F1400F4FEA164604
:104240001FDD13F1200FDFBF16430A460021203384
:104250005B42BED0C3F1200746EA064602FA07F7E2
:104260004FEA164646EA0706C3F1200722FA03F290
:1042700001FA07F721FA03F14FF0000342EA0702BF
:10428000A7E746EA020646EA06464FEA164646EA27
:104290000106BCBF46EA0646360C4FF000034FF05D
:1042A00000024FF0000194E72DE9804C9A469346B6
:1042B00070B491E8380007C831EA400C48BF34EACE
:1042C000430C03D5FFF7A4FDFFF780FFF0BCBDE86A
:1042D000008C2DE9804C9A46934670B491E83800E2
:1042E00007C831EA400C48BF34EA430C03D5FFF756
:1042F0008FFDFFF729FFF0BCBDE8008C2DE9804C55
:104300009A46934670B491E8380007C810F0804F81
:1043100008BF13F0804F03D100F01AF8FFF756FFE3
:10432000F0BCBDE8008C2DE9804C9A46934670B4F1
:1043300091E8380007C810F0804F08BF13F0804F95
:1043400003D100F005F8FFF7FFFEF0BCBDE8008CDC
:1043500020F07F4780EA030023F07F4C07EB0C033B
:10436000A3F57C5300F00040A3F1FE0392F0000F90
:1043700000F0B38095F0000F00F077802DE901493F
:104380004FEA11404FEA144621EA004800FB06FCC0
:1043900024EA064708FB06F607FB08F800FB07F7C8
:1043A00018EB06484CEB164C4FEA124B18EB07483B
:1043B0004FEA15464CEB174022EA0B4E0BFB06FC6E
:1043C00025EA06470EFB06F607FB0EFE0BFB07F77A
:1043D0001EEB064E4CEB164C4FF000061EEB074E44
:1043E0004CEB174B18EB0B0840F1000018EB0E0BD1
:1043F00058EB000840F100008F1A4FF000013CBF5D
:10440000C943661B14BFB5EB040C00213CBFC94374
:10441000F61B4FEA17444EEA8E0E27EA04454FEA90
:104420001C4704FB07622CEA074C05FB07F70CFB53
:1044300005F604FB0CFC16EB074642EB174216EBA5
:104440000C4642EB1C421BEB060658EB02024141B4
:1044500046EA9E0601D5BDE80189B619524141EBF5
:104460000101A3F10103BDE801894FEA14454FEAB8
:10447000114724EA054621EA074C05FB07F406FB31
:1044800007F70CFB06F105FB0CFC11EB074144EBB5
:1044900017444FEA124711EB0C4144EB1C4422EA4B
:1044A000074C05FB07F206FB07F70CFB06F605FBBE
:1044B0000CFC16EB074642EB174216EB0C4642EBA0
:1044C0001C456A1854F1000148BF7047B6195241A3
:1044D00041EB0101A3F10103704795F0000F37D0C4
:1044E0004FEA11424FEA144721EA024624EA074CF8
:1044F00002FB07F106FB07F70CFB06F402FB0CFCC2
:1045000014EB074441EB17414FEA154714EB0C44F9
:1045100041EB1C4125EA074C02FB07F506FB07F7B8
:104520000CFB06F602FB0CFC16EB074645EB1745A9
:1045300016EB0C4645EB1C42121951F1000148BF25
:104540007047B619524141EB0101A3F101037047D5
:104550004FEA14454FEA114724EA054621EA074C81
:1045600005FB07F106FB07F70CFB06F24FF0000610
:1045700005FB0CFC12EB074241EB174112EB0C421E
:1045800051EB1C4148BF7047921841EB0101A3F168
:104590000103704738B504466846AFF30080014612
:1045A000204628F03DFF38BDC9430160704700290F
:1045B000816802D041F0010101E021F00101816038
:1045C0007047000070B5244D0446244E687840B909
:1045D0000020FF213154401CC0B21228FAD3012020
:1045E000687024B3012C22D0022C20D0032C1ED0C2
:1045F000042C1CD0052C1AD0062C18D0072C16D051
:10460000082C14D0092C12D00A2C10D00B2C0ED050
:104610000C2C0CD00D2C0AD00E2C08D00F2C06D050
:10462000102C04D0112C02D04FF0FF3070BD20466A
:1046300000F016F8401C02D06FF0010070BD287821
:10464000122802D36FF0020070BD3454401CC0B277
:104650002870401E70BD0000B0020020981A032090
:10466000094910B502460020064B097804E01C5C9D
:10467000944205D0401CC0B28842F8D34FF0FF30BE
:1046800010BD0000981A0320B0020020014600204F
:104690008968490700D501207047C06C80B2704717
:1046A0000246002012680A4200D0012070470146ED
:1046B00000208968090700D50120704710B54268BD
:1046C0000E4B0C791A400B6842EA042213434360F4
:1046D00083680B4A1340D1E9024222434C7943EAF2
:1046E00044031A438260C26A097C22F47002491EA4
:1046F000C9B242EA0151C16210BD0000FFFEF0FFE5
:10470000FDF7F1FD70B5072409290AD9C568A1F1A3
:104710000A0606EB4606B440A543B3401D43C560F8
:1047200007E0056901EB4106B440A543B3401D43D2
:1047300005611F23072A09D2446B521E02EB820235
:1047400093409C4391400C43446370BD0D2A09D2B1
:10475000046BD21F02EB820293409C4391400C43B6
:10476000046370BDC46A0D3A02EB820293409C431D
:1047700091400C43C46270BD0D4910B5884202D10E
:10478000012144150AE00B49884202D10121041598
:1047900004E0094988420AD10121CC03204601F0F6
:1047A0007BF82046BDE81040002101F075B810BD2F
:1047B0000024014000280140003C0140816841F094
:1047C0000801816070470029816802D041F4A0018E
:1047D00001E021F4A00181607047816841F004018B
:1047E0008160704700210160017141718160C16089
:1047F000012101747047000008B502490844009087
:10480000008808BD006C004010B5012001F050F890
:10481000BDE81040002001F04BB8000008B5024A86
:1048200010440090016008BD006C004010B54FF4CA
:104830000074204600F046F8002818D0204600F00A
:1048400027F80B49D1E90020904204D2BDE810407E
:10485000111A08F00FB80748B0F80C21D0F8000181
:1048600002618868002802D0BDE81040004710BDF2
:10487000440100201C5704080029016802D041F0BF
:10488000010102E04FF6FE72114001607047000026
:10489000C10002D50249086070470249486070476C
:1048A0000404024000000240002101604160816078
:1048B000C160016141618161C161016241628162E6
:1048C0007047000001460020CA0001D5034A00E0FD
:1048D000034A12680A4200D00120704700040240D7
:1048E00000000240002A026801D00A4300E08A4327
:1048F0000260704730B5036847F6F07293430C6A64
:104900008A682243D1E904452C4322438C6922431F
:10491000CC6922434C6A22438C6A22431A430260C8
:10492000CA6842600A6882604968C16030BD0000A0
:1049300001684FF6FE721140016000210160416084
:104940008160C1603149314A0839904203D14868D9
:1049500040F00F0006E02D4A1432904204D148681E
:1049600040F0F00048607047284A2832904203D156
:10497000486840F47060F5E7244A3C32904203D125
:10498000486840F47040EDE7204A5032904203D12D
:10499000486840F47020E5E71C4A6432904203D135
:1049A000486840F47000DDE7184A7832904203D13D
:1049B000486840F07060D5E7154A111F904203D156
:1049C000086840F00F0006E0114A1432904204D10A
:1049D000086840F0F000086070470D4A28329042A5
:1049E00003D1086840F47060F5E7094A3C32904210
:1049F00003D1086840F47040EDE7054A5032904218
:104A0000EAD1086840F47020E5E7000008000240A1
:104A10000804024070B501F081FA0E484FF47A7133
:104A20004FF0FF350068B0FBF1F1491EB1F1807F16
:104A30000AD24FF0E02461610F21284610F0AEFA4F
:104A40000020A061072020612846BDE870400021B9
:104A500010F0A4BABC02002010B5012000F00AF941
:104A6000002808D00448006800B18047BDE8104025
:104A7000012000F0D9B810BDD01A032070B54FF452
:104A80008065284600F0F6F8234C28B1A16A01B1F0
:104A90008847284600F0C8F84FF40065284600F023
:104AA000E9F828B1E16A01B18847284600F0BCF86E
:104AB0004FF48055284600F0DDF828B1216B01B194
:104AC0008847284600F0B0F84FF40055284600F01B
:104AD000D1F828B1616B01B18847284600F0A4F8ED
:104AE0004FF48045284600F0C5F828B1A16B01B10C
:104AF0008847284600F098F84FF40045284600F013
:104B0000B9F8002807D0E16B01B188472846BDE815
:104B1000704000F089B870BDD01A032010B5022093
:104B200000F0A8F8002808D00448406800B1804789
:104B3000BDE81040022000F077B810BDD01A032065
:104B400010B5042000F096F8002808D004488068CA
:104B500000B18047BDE81040042000F065B810BDEA
:104B6000D01A032010B5082000F084F8002808D0DF
:104B70000448C06800B18047BDE81040082000F03C
:104B800053B810BDD01A032010B5102000F072F8F1
:104B9000002808D00448006900B18047BDE81040F3
:104BA000102000F041B810BDD01A032070B52020AD
:104BB00000F060F81B4C28B1606900B180472020EC
:104BC00000F032F8402000F055F828B1A06900B19B
:104BD0008047402000F028F8802000F04BF828B1F2
:104BE000E06900B18047802000F01EF84FF4807526
:104BF000284600F03FF828B1216A01B188472846CD
:104C000000F012F84FF40075284600F033F8002841
:104C100007D0616A01B188472846BDE8704000F0BE
:104C200003B870BDD01A0320014908607047000026
:104C30001404014010B5062400F052F904280ED8DF
:104C4000052815D2DFE800F0140305070900072442
:104C50000EE008240CE009240AE00A2408E0411FC1
:104C6000042901D8172403E00A38052800D828248D
:104C7000204610BD064A014600201268044B0A4037
:104C800014331B680B4202D0002A00D00120704769
:104C90000004014030B51A498379026853B30B68A8
:104CA00093430B600A1D13680468A34313600279E1
:104CB0000A441368046823431360114A08321368D6
:104CC0000468A3431360131D1C680568AC431C6093
:104CD0004479102C05D021440A68006802430A6018
:104CE00030BD1168046821431160196800680143F0
:104CF000196030BD0079084401689143016030BDFE
:104D0000000401402DE9FE431E46DDF828901746B9
:104D10000D46804650282DD200F0E2F804460F28B8
:104D200028D81548012140F82450084600F0A8FD75
:104D3000404600F0E7F8214600F0BEF8012505FAEC
:104D400004F0009000208DF804008DF805708DF8B7
:104D500006506846FFF79EFF4046FFF76BFF8DF851
:104D600008008DF809608DF80A908DF80B5002A8A4
:104D700000F0AEFCBDE8FE83D01A032070B5A52577
:104D800000F04CF800B100254FF08056304600F09E
:104D900081F8042825D1144C1248A0601348A06063
:104DA000206940F020002061206940F0400020612F
:104DB000304600F06FF804280DD1206920F0200063
:104DC0002061206940F010002061094805804FF4FF
:104DD000704000F05FF8052803D0216921F0100130
:104DE000216170BD2301674500200240AB89EFCDF2
:104DF00000F8FF1F08490420CA68D20701D001202B
:104E00007047CA68520701D502207047C968C906B1
:104E1000FBD503207047000000200240034900201A
:104E2000C969890700D501207047000000200240B1
:104E3000F0B506464FF470470D46384600F02AF8A4
:104E4000042812D10A4C0948A0600A48A0602069D1
:104E500040F0100020613580384600F01BF805282E
:104E600003D0216921F010012161F0BD23016745C4
:104E700000200240AB89EFCD044803494160044A59
:104E8000426041644264704723016745002002404C
:104E9000AB89EFCD00B50346FFF7ACFF03E000BFE1
:104EA000FFF7A8FF5B1E012803D0002B00D10520CF
:104EB00000BD002BF4D1FAE710B58A0721F00304F6
:104EC0000649130F21440F228C689A4094438C604A
:104ED0008A68984002438A6010BD000000000140CB
:104EE000024901EB0010808900F002B81C57040849
:104EF000002102E04008491C89B20128FAD8C8B252
:104F0000704700000F4901EB00100F49006888420C
:104F100001D1002070470D49884201D1012070471E
:104F20000B49884201D1022070470A49884201D1C9
:104F3000032070470849884201D104207047FF20B0
:104F4000704700001C57040800080140000C014095
:104F5000001001400014014000180140F0B5CA786B
:104F6000002502F00F03D20601D58A7813430A7890
:104F70004FF00F0E12F0FF0F4FF001021CD004682B
:104F80000F8802FA05F63740B74211D14FEA850C77
:104F90000EFA0CF724EA070703FA0CF43C43CF7827
:104FA000282F02D0482F02D002E0466100E00661BF
:104FB0006D1C082DE4D304600C88FF2C1ED94468B6
:104FC0005FF0000606F1080702FA07F50F882F4088
:104FD000AF420FD14FEA860C0EFA0CF7BC4303FA2E
:104FE0000CF73C43CF78282F00D14561CF78482F6C
:104FF00000D10561761C082EE4D34460F0BD10B5E5
:105000000121084600F03CFC0121BDE810404806A3
:10501000AFF3008070B5B0F1004F63D96FF07F43FC
:1050200003EAD01300F07F04200904F00F04850088
:1050300004FA05F5062B14D2DFE803F00305080B8C
:105040000E11F44A0DE0F34A121D0AE0F14A08324B
:1050500007E0F04A0C3204E0EE4A103201E0ED4A7B
:10506000143270B1012810D002281DD003281FD09F
:10507000042821D0052823D0062825D0072827D0AA
:105080002AE0106820F00F0025E0012B03D0106803
:1050900020F0F0001FE01068042C02D920F0C000BE
:1050A00019E020F0300016E0106820F4706012E083
:1050B000106820F470400EE0106820F470200AE0C0
:1050C000106820F4700006E0106820F0706002E0C4
:1050D000106820F070401060012902D11068284348
:1050E000106070BDCB4A4FF48025203AA8420FD003
:1050F00040DCB0F5007F71D01EDC10286FD008DCDA
:1051000001286DD0022803D0042801D00828E8D156
:1051100098E0302878D0402877D0C02876D0B0F5F5
:10512000807FDED1506820F4407050600129D8D1D2
:10513000506840F480704BE1B0F5804F67D00CDCD4
:10514000B0F5407F7AD0B0F5006F78D0B0F5406F01
:1051500076D0B0F5805FC4D174E0B0F5C04F70D0A8
:10516000B0F5004F6ED0B0F5803F6BD0B0F5003F8A
:10517000B7D167E0B0F1005F77D032DCB0F5000F57
:1051800074D015DCB0F5002F5CD0B0F5801F59D07D
:10519000B0F5001F6BD0B0F5800FA2D1506820F49D
:1051A0008000506001299CD1506840F480000FE1DC
:1051B000B0F1807F70D0B0F1007F6ED0B0F1806F21
:1051C0006CD0B0F1805F8CD1506820F0805050607E
:1051D000012986D1506840F08050F9E073E047E043
:1051E00039E08D4C031BA0421DD011DCB0F1804F83
:1051F00073D0A0F18043203B15D0B3F5787F12D057
:10520000864CE3428DD10EE03CE048E051E086E080
:10521000AB4277D0B3F5402F75D0B3F5A01F73D054
:10522000B3F5E01F97D1D369C0F315008343D36171
:10523000012990D1D1690143D16170BD4EE057E0A1
:1052400063E076E05368834353600129F5D15168E8
:1052500001435160F1E75068714B184050600129DB
:10526000EBD1506840F00100B2E094E09DE0A6E090
:10527000506820F0300050600129DED1506840F0C5
:105280001000A5E0506820F0300050600129D4D112
:10529000506840F030009BE055E05EE067E0506809
:1052A00020F0C00050600129C7D1506840F0400094
:1052B0008EE0506820F0C00050600129BDD15068D8
:1052C00040F0C00084E0506820F440705060012934
:1052D000B3D1506840F400707AE052E0506820F496
:1052E000407050600129A8D1506840F440706FE0D0
:1052F000506820F44060506001299ED1506840F40D
:10530000006065E066E06FE078E0506820F440609F
:105310005060012991D1506840F4406058E05068D5
:1053200020F4C0405060012987D1506840F480408B
:105330004EE0506820F4C040506001298AD1506886
:1053400040F4C04044E0506820F0E0605060012923
:1053500086D1506840F080703AE0506820F0E060FC
:105360005060012989D1506840F0007030E05068E9
:1053700020F0E0605060012989D1506840F08060E1
:1053800026E0506820F08040506001298CD15068A0
:1053900040F080401CE0506820F00050506001292F
:1053A0008CD1506840F0005012E0506820F40000AA
:1053B000506001298CD1506840F4000008E050682A
:1053C00020F40010506001298DD1506840F4001085
:1053D000506032E7D06920F4C010D0610129F8D1C3
:1053E000D06940F4002012E0D06920F4C010D061F0
:1053F0000129EED1D06940F4801008E0D06920F492
:10540000C010D0610129E4D1D06940F4C010D0614E
:1054100013E7000020000140000004402000FEFFD0
:10542000FEFFFF7F38B504462148844201D10420A5
:1054300012E02048844201D108200DE01E48844239
:1054400001D1102008E01D48844201D1202003E052
:105450001B4884421DD14020E2B1012A1CD0022AFF
:105460001CD0032A1CD0052A1CD0062A1CD0082ACE
:105470001CD0072A0DD11C22ADF800108DF8032096
:105480008DF80230012100F0FBF969462046FFF754
:1054900065FD38BD0422EFE74822EDE72822EBE75F
:1054A0000022E9E71022E7E71422E5E71822E3E704
:1054B00000080140000C01400010014000140140B0
:1054C000001801402DE9F04389462DED108B83B083
:1054D0008046B0EE41CAF0EE61CAB0EE409AF0EEFE
:1054E000609A9FED610B51EC190B53EC102B29F0D6
:1054F00013FD0F4647EC180B05469FED5D0B51EC75
:105500001C0B53EC102B29F007FD0E46044646EC0D
:10551000100BB0EE481AF0EE681A06F0A5FEB0EED9
:1055200040EAF0EE60EA47EC115B46EC104B07F006
:1055300009F88DED000B9FED50AB51EC190B53ECBE
:105540001A2B29F085F89FED4EBB53EC1B2B29F04D
:10555000D7FA41EC1D0BB0EE4D0AF0EE6D0A10F0DB
:10556000F3FAB0EE408AF0EE608A9FED470B51EC03
:10557000180B53EC102B29F0C3FA53EC182B29F01D
:10558000BFFA9FED431B53EC112B29F0EDFB41ECCF
:10559000180BB0EE480AF0EE680A10F001FCB0EE0D
:1055A00040FAF0EE60FA53EC1F2B51EC180B29F087
:1055B000A7FA41EC100B53EC102B9FED370B51EC7D
:1055C000100B29F045F853EC1B2B29F099FA41EC0C
:1055D000180B53EC1A2B51EC1E0B29F091FA53ECDB
:1055E000182B29F035F841EC180BB0EE4D0AF0EE0F
:1055F0006D0A0FF0EDFFB0EE40DAF0EE60DA9FEDED
:10560000280B53EC1F2B51EC100B29F021F853EC15
:105610001D2B29F075FA53EC1B2B29F071FA9DED27
:10562000000B41EC1B0B53EC1A2B51EC100B29F027
:1056300067FA53EC1B2B29F00BF841EC1A0B53ECD7
:10564000182B51EC190B28F047FFC8E9000153EC67
:105650001A2B51EC1C0B28F03FFFC9E9000103B0E5
:10566000BDEC108BBDE8F0830000000000804140DD
:105670000000000000405A4000000000008066402A
:10568000182D4454FB2109400BEF80AF8F6A7B3FFC
:10569000000000000000F03FC155E32D102B5841E1
:1056A00000000040C154584181070CD16421B0FB77
:1056B000F1F201FB120141B94FF4C871B0FBF1F2F4
:1056C00001FB120008B10020704701207047000064
:1056D00070B50F23C47801780122F4B1144C24680A
:1056E000457804F4E064C4F5E064240AC4F10406D7
:1056F000E3408478B5401C402C4301F1E0212301B4
:1057000081F80034007800F01F018A4040098000D1
:1057100000F1E020C0F8002170BD01F01F008240C0
:105720004809800000F1E020C0F8802170BD000031
:105730000CED00E002490843024908607047000090
:105740000000FA050CED00E02DE9F04116460C468C
:1057500050280ED2134901EB0015696849B1A97BA5
:1057600039B134B12EB1104F04FB06F13A689142C1
:1057700002D90020BDE8F081082125F00FFE38682D
:105780000021B0FBF4F0B0FBF6F6686800F0DAFD3B
:10579000761E641EAB7BB2B2A1B2686800F04CFC0E
:1057A000A87BE7E71C570408BC02002001490862F7
:1057B0007047000000000E42827A0AB1002202E027
:1057C000C27A3AB101224272427A50F8220008604D
:1057D0000120704700207047027A437A9A4203D131
:1057E000427A32B100220272027A50F82200086036
:1057F00070470122F7E7002380E80E007047427AE5
:1058000000210A3011547047037A012200F10A0185
:105810005A54017A11B10021017270470121FBE74E
:10582000034A5168034B194001435160704700001F
:1058300000100240FF3FFFEF044A0029516901D0E8
:10584000014300E0814351617047000000100240B5
:10585000044A0029D16901D0014300E08143D161AC
:105860007047000000100240044A0029116901D06D
:10587000014300E0814311617047000000100240C5
:10588000044A0029916901D0014300E081439161FC
:105890007047000000100240044A0029D16801D07E
:1058A000014300E08143D1607047000000100240D6
:1058B00001490860704700004004424270B53D490C
:1058C0004A683D4B12F00C0204D0042A0AD0082A80
:1058D00008D109E00A6B920104D54A6D920501D501
:1058E000364A32E0036031E04A6802F480344A68A4
:1058F000334D2A4012F0C04F05D1C2F383450F2D1E
:1059000001D0022600E00126302505EA5265C2F3E7
:1059100083421543721964B14C68A4030BD54C6DD6
:10592000032505EA1434A41CB3FBF4F353430360CA
:1059300004E0244B00E0204B5A4302604A68002AEE
:1059400004DB214A0368934200D902604A684B682D
:10595000C2F302121C061D4B01D59C5C00E0002422
:105960000268E24042604C684D68C4F301246D0552
:1059700001D51C5D00E0002422FA04F484604C6828
:105980004D68C4F3C124AD0401D51B5D00E00023C4
:10599000DA40C2604B684968C3F38133C90001D55E
:1059A00043F0040309490831C95CB2FBF1F101611C
:1059B00070BD00000010024000127A00006CDC0292
:1059C00000003C6000093D0000A24A04345C040869
:1059D0000246002053090949012B0BD0022B0BD0A2
:1059E000D1F8241002F01F02012393400B4200D093
:1059F000012070470968F5E7096AF3E700100240E3
:105A00000649002281F8202081F82020012802D0B8
:105A1000042802D1052081F82000704700100240C0
:105A200001490860704700003C04424202490A6A8A
:105A300002430A6270470000001002400549012835
:105A4000486D03D020F030004865704740F03000CA
:105A5000FAE700000010024002490A8882430A80E7
:105A600070470000042800400248018841F01001FE
:105A700001807047042800400248018821F010018D
:105A800001807047042800402DE9F04700F066F8D7
:105A90002E4F0646B0FBF7F32D482E4C0188994255
:105AA0002ED0038040F2B2754FF4B7794FF4B67838
:105AB0000DE0A8B2FFF7F8FD30B14B4502D3A3F5D6
:105AC000B77303E06D1C04E0A3F26D136D1C434536
:105AD000EFD8A5800025DFF880800BE0A088FFF7D5
